:020000040800F2
:100000002008002089010008E5010008E50100083A
:10001000E5010008E5010008E50100080000000016
:10002000000000000000000000000000E5010008E2
:10003000E501000800000000E5010008E5010008F6
:10004000E5010008E5010008E5010008E5010008F8
:10005000E5010008E5010008E5010008E5010008E8
:10006000E5010008E5010008E5010008E5010008D8
:10007000E5010008E5010008E5010008E5010008C8
:10008000E5010008E5010008E5010008E5010008B8
:10009000E5010008E5010008E5010008E5010008A8
:1000A000E5010008E5010008E5010008E501000898
:1000B000850B0008E5010008E5010008E5010008DE
:1000C000E5010008E5010008E5010008E501000878
:1000D000E5010008E5010008E5010008E501000868
:1000E000E5010008E5010008E5010008E501000858
:1000F000E5010008E5010008E5010008E501000848
:10010000E5010008E5010008E5010008E501000837
:10011000E5010008E5010008E5010008E501000827
:10012000E5010008E5010008E5010008E501000817
:10013000E5010008E5010008E5010008E501000807
:10014000E5010008E5010008E5010008E5010008F7
:10015000E5010008E5010008E5010008E5010008E7
:10016000E5010008E5010008E5010008E5010008D7
:10017000E5010008E5010008E5010008E5010008C7
:10018000E5010008E501000880B582B000AF104B22
:100190007B60104B3B6007E03B681A1D3A607A6851
:1001A000111D796012681A603A680B4B9A42F3D3BA
:1001B0000A480B494FF000028842B8BF40F8042BB0
:1001C000FFF6FAAF00F012F80837BD4680BD00BF59
:1001D0009015000800000020000000200000002012
:1001E0002000002080B400AFFEE700BF80B500AF64
:1001F00000F0E2FF0120012100F02CFD4FF480709F
:10020000012100F063FD00F051FA00F063FA00F004
:1002100073FA00F097FA00F0B1FA00F07BFC00F0FE
:1002200053FC00F09DFC5A4800F0CAFE00BF58483D
:10023000022100F0E3FE0346002BF8D0544800F002
:10024000CFFE03461A46534B1A605348012100F073
:100250007DFF0346012B5BD1504B1B685A1C4F4B53
:100260001A604E4B1B68022B02DD4C4B00221A60B9
:100270004A4B1B68012B1BD0022B31D0002B47D1DE
:100280004348002100F0BCFD414801210122042324
:1002900000F0D2FD3E48012100F0B2FD404B0B22A0
:1002A0001A60404B01221A60032000F0AFFC2FE0DF
:1002B0003748002100F0A4FD354802210122042323
:1002C00000F0BAFD3248012100F09AFD344B0B22B8
:1002D0001A60344B02221A60032000F097FC17E0EA
:1002E0002B48002100F08CFD294803210122042322
:1002F00000F0A2FD2648012100F082FD284B0B22D0
:100300001A60284B03221A60032000F07FFC00BF14
:10031000224B1B68012B0CD0022B13D0002B1AD1BF
:100320001C4B1B68184600F043F802461E4B1A602F
:1003300011E0184B1B68184600F082F802461A4B71
:100340001A6008E0134B1B68184600F053F8024689
:10035000154B1A6000BF144B1B68144A82FB031232
:100360009210DB17D21A0E4B1A600F4B19680F4B05
:1003700083FB01239A10CB17D21A13469B00134418
:100380005B00CA1A074B1A60012000F03FFC4AE7E5
:10039000002001400800002000000240180000205A
:1003A00010000020140000200C0000206766666624
:1003B00080B483B000AF78607B68B3F57A6F01DBFF
:1003C00000230EE07B68B3F52F7F01DC632308E098
:1003D0007B68C3F57A63064A82FB0312D210DB17EF
:1003E000D31A18460C37BD465DF8047B704700BF32
:1003F000E1830F3E80B483B000AF78607A6840F24A
:100400006B739A4201DD5A2311E07B68B3F5167FC6
:1004100001DC14230BE07B68C3F5ED630433074A6A
:1004200082FB0312D210DB17D31AC3F1550318460F
:100430000C37BD465DF8047B704700BF6766666693
:1004400080B483B000AF78607B68B3F5CF6F02DA19
:100450008D4B1B6812E17B68B3F5CF6F13DB7A68B5
:1004600040F204739A420EDC7B68A3F5CF63874A9F
:1004700082FB03121A44D210DB17D21A824B1A6085
:10048000814B1B68FAE07A6840F204739A4211DDEE
:100490007B68B3F5F36F0DDA7B68A3F20573002B6D
:1004A00000DA0F331B111A46774B1A60764B1B6824
:1004B0000A33E3E07B68B3F5F36F13DB7A6840F24D
:1004C000E3739A420EDC7B68A3F5F363704A82FB08
:1004D0000312D210DB17D21A6B4B1A606A4B1B68DF
:1004E0001433CBE07A6840F2E3739A4213DD7A6802
:1004F00040F635039A420EDC7B68A3F2E473654A4A
:1005000082FB0312D210DB17D21A5F4B1A605E4BCC
:100510001B681933B2E07A6840F635039A4212DD5F
:100520007B68B3F50E6F0EDA7B68A3F636035A4A82
:1005300082FB03129210DB17D21A534B1A60524BF4
:100540001B681E339AE07B68B3F50E6F13DB7A6885
:1005500040F692139A420EDC7B68A3F50E634C4A78
:1005600082FB0312D210DB17D21A474B1A60464B9C
:100570001B68283382E07A6840F692139A4213DDB2
:100580007A6840F64C239A420EDC7B68A3F69313FC
:10059000404A82FB0312D210DB17D21A3A4B1A6080
:1005A000394B1B68323369E07A6840F64C239A4233
:1005B00012DD7B68B3F5316F0EDA7B68A3F64D234D
:1005C000364A82FB03129210DB17D21A2E4B1A60A6
:1005D0002D4B1B683C3351E07B68B3F5316F13DB67
:1005E0007A6840F6DA339A420EDC7B68A3F5316311
:1005F0002B4A82FB03129210DB17D21A224B1A608D
:10060000214B1B68463339E07A6840F6DA339A4268
:1006100014DD7A6840F6AD439A420FDC7B68A3F69E
:10062000D133204A82FB03121A441211DB17D21A6B
:10063000154B1A60144B1B6850331FE07A6840F664
:10064000AD439A4213DD7A6840F689539A420EDC34
:100650007B68A3F6AE43144A82FB03129210DB17A9
:10066000D21A094B1A60084B1B685A3306E07A68A5
:1006700040F689539A4201DD6323FFE718460C37A1
:10068000BD465DF8047B70471C000020898888887F
:10069000F31ACA6B67666666398EE338310CC3306D
:1006A000E9A28B2EC94216B2ABAAAA2A80B582B0A3
:1006B00000AF0E233B6003233B710023FB713B46DD
:1006C0000348194600F0B4FC0837BD4680BD00BFA2
:1006D0000000024080B584B000AF00233B600023DF
:1006E0007B600023BB600023FB603B46184600F0A4
:1006F0005FFB1037BD4680BD80B586B000AF0023DC
:100700003B6001233B7101237B710023FB600023CD
:10071000BB6000233B6101233B753B4608481946FB
:1007200000F0F2FA064801210122042300F084FBC4
:100730000348012100F064FB1837BD4680BD00BFAF
:100740000020014080B582B000AF0120012100F0FF
:1007500081FA48F2F0533B6001233B710023BB71E7
:1007600003237B710023FB713B460348194600F0CD
:100770005FFC0837BD4680BD0000024080B582B0F6
:1007800000AF0220012100F065FA03233B60012342
:100790003B710023BB7103237B710023FB713B463C
:1007A0000348194600F044FC0837BD4680BD00BF31
:1007B0000004024080B582B000AF78607B680B2BEC
:1007C00000F27C8101A252F823F000BFFD0700086F
:1007D0003D0800087D080008BD080008FD08000865
:1007E0003D0900087D090008BD090008FD09000851
:1007F0003D0A0008BD0A00087D0A0008B1484021F2
:1008000000F0CCFCAF484FF4807100F0C7FCAD485D
:100810004FF4806100F0C2FCAA48102100F0BEFC39
:10082000A8484FF4004100F0B9FCA648802100F030
:10083000B5FCA448202100F0A3FC3FE1A1484021E1
:1008400000F09EFC9F484FF4807100F0A7FC9D488B
:100850004FF4806100F094FC9A48102100F090FC65
:1008600098484FF4004100F099FC9648802100F030
:1008700087FC9448202100F083FC1FE1914840212F
:1008800000F08CFC8F484FF4807100F087FC8D489D
:100890004FF4806100F082FC8A48102100F07EFC59
:1008A00088484FF4004100F06BFC8648802100F03E
:1008B00067FC8448202100F071FCFFE08148402162
:1008C00000F06CFC7F484FF4807100F067FC7D48BD
:1008D0004FF4806100F054FC7A48102100F05EFC77
:1008E00078484FF4004100F059FC7648802100F030
:1008F00047FC7448202100F051FCDFE071484021A2
:1009000000F03EFC6F484FF4807100F047FC6D48EA
:100910004FF4806100F034FC6A48102100F030FC94
:1009200068484FF4004100F039FC6648802100F02F
:1009300035FC6448202100F031FCBFE061484021D3
:1009400000F02CFC5F484FF4807100F019FC5D480A
:100950004FF4806100F014FC5A48102100F01EFC96
:1009600058484FF4004100F019FC5648802100F02F
:1009700015FC5448202100F011FC9FE05148402113
:1009800000F00CFC4F484FF4807100F0F9FB4D482B
:100990004FF4806100F002FC4A48102100F0FEFB99
:1009A00048484FF4004100F0F9FB4648802100F030
:1009B000F5FB4448202100F0F1FB7FE04148102185
:1009C00000F0ECFB3F484FF4807100F0E7FB3D483E
:1009D0004FF4806100F0D4FB3A48402100F0D0FB96
:1009E00038484FF4004100F0D9FB3648802100F030
:1009F000C7FB3448202100F0C3FB5FE031484021B1
:100A000000F0CCFB2F484FF4807100F0C7FB2D485D
:100A10004FF4806100F0C2FB2A48102100F0BEFBB9
:100A200028484FF4004100F0B9FB2648802100F02F
:100A3000B5FB2448202100F0B1FB3FE021484021D4
:100A400000F0ACFB1F484FF4807100F0A7FB1D487D
:100A50004FF4806100F094FB1A48102100F09EFBD7
:100A600018484FF4004100F099FB1648802100F02F
:100A700095FB1448202100F091FB1FE01148402114
:100A800000F07EFB0F484FF4807100F079FB0D48B9
:100A90004FF4806100F082FB0A48102100F07EFBD9
:100AA00008484FF4004100F06BFB0648802100F03D
:100AB00075FB0448202100F071FB00BF0837BD46DC
:100AC00080BD00BF0000024080B584B000AF0220AE
:100AD000012100F0DDF85323BB800023FB8040F2AE
:100AE000E733BB600023BB810023BB733B1D084879
:100AF000194600F065FC0648012100F0CBFC0448D3
:100B00000121012200F0E6FC1037BD4680BD00BF88
:100B10000004004080B584B000AF0120012100F046
:100B2000B7F85323BB800023FB8040F2E733BB6060
:100B30000023BB810023BB733B1D4FF0804019464F
:100B400000F03EFC4FF08040012100F0A3FC4FF08C
:100B500080400121012200F0BDFC1037BD4680BD60
:100B600080B582B000AF1C233B7100237B71012351
:100B7000BB710123FB713B1D184600F0C3FB083716
:100B8000BD4680BD80B500AF4FF08040012100F030
:100B9000C5FC0346002B2FD0184B1B68002B02D03E
:100BA000012B13D023E01648012100F0F7FA144876
:100BB000022100F0E5FA134B1B681846FFF7FAFD17
:100BC0000E4B1B685A1C0D4B1A6010E00C4802219A
:100BD00000F0E4FA0A48012100F0D2FA0A4B1B683F
:100BE0001846FFF7E7FD054B00221A6000BF4FF0E3
:100BF0008040012100F0BCFC80BD00BF040000204B
:100C000000040240100000201400002080B485B0D1
:100C100000AF78600023FB600023FB600BE00C4B0F
:100C200000225A6200BF0A4B5B6AB3F5617FFAD3B8
:100C3000FB680133FB60FA687B68D72101FB03F393
:100C40009A42ECD31437BD465DF8047B704700BF71
:100C50000004004080B483B000AF78600B46FB70A6
:100C6000FB78002B06D0094B084A116B7A680A43BF
:100C70001A6306E0054B054A116B7A68D2430A40B5
:100C80001A630C37BD465DF8047B7047003802409C
:100C900080B483B000AF78600B46FB70FB78002B0C
:100CA00006D0094B084A116C7A680A431A6406E0B8
:100CB000054B054A116C7A68D2430A401A640C3716
:100CC000BD465DF8047B70470038024080B483B0B5
:100CD00000AF78600B46FB70FB78002B06D0094B09
:100CE000084A516C7A680A435A6406E0054B054A83
:100CF000516C7A68D2430A405A640C37BD465DF89D
:100D0000047B70470038024080B485B000AF786043
:100D100039600023FB600023FB727B685B68FB602B
:100D2000FB6823F0407323F48073FB603B681B79FE
:100D30001A023B681B681343FA681343FB607B6825
:100D4000FA685A607B689B68FB60FA68174B13402F
:100D5000FB603B681A693B68DB681A433B689B6829
:100D60001A433B685B795B001343FA681343FB60EB
:100D70007B68FA689A607B68DB6AFB60FB6823F437
:100D80007003FB603B681B7D013BDAB2FB7A1343C7
:100D9000FB72FB7A1B05FA681343FB607B68FA68F9
:100DA000DA621437BD465DF8047B7047FDF7FFC07B
:100DB00080B485B000AF78600023FB600E4B5B68A9
:100DC000FB60FA680D4B1340FB607B681A687B6818
:100DD0005B681A437B689B681A437B68DB68134334
:100DE000FA681343FB60044BFA685A601437BD4637
:100DF0005DF8047B704700BF00230140E030FCFF3A
:100E000080B483B000AF78600B46FB70FB78002B9A
:100E100006D07B689B6843F001027B689A6005E01E
:100E20007B689B6823F001027B689A600C37BD46A3
:100E30005DF8047B704700BF80B485B000AF786078
:100E4000F970BA707B700023FB600023BB60FB78F5
:100E5000092B23D97B68DB68FB60FB78A3F10A02CE
:100E600013465B001344072202FA03F3BB60BB681E
:100E7000DB43FA681340FB607978FB78A3F10A0240
:100E800013465B00134401FA03F3BB60FA68BB68C6
:100E90001343FB607B68FA68DA601EE07B681B69BD
:100EA000FB60FA7813465B001344072202FA03F34F
:100EB000BB60BB68DB43FA681340FB607978FA7863
:100EC00013465B00134401FA03F3BB60FA68BB6886
:100ED0001343FB607B68FA681A61BB78062B21D844
:100EE0007B685B6BFB60BB785A1E13469B00134408
:100EF0001F2202FA03F3BB60BB68DB43FA681340AE
:100F0000FB60F978BB785A1E13469B00134401FA24
:100F100003F3BB60FA68BB681343FB607B68FA6845
:100F20005A6347E0BB780C2B21D87B681B6BFB60B6
:100F3000BB78DA1F13469B0013441F2202FA03F307
:100F4000BB60BB68DB43FA681340FB60F978BB7891
:100F5000DA1F13469B00134401FA03F3BB60FA68DF
:100F6000BB681343FB607B68FA681A6322E07B6806
:100F7000DB6AFB60BB78A3F10D0213469B001344B0
:100F80001F2202FA03F3BB60BB68DB43FA6813401D
:100F9000FB60F978BB78A3F10D0213469B00134464
:100FA00001FA03F3BB60FA68BB681343FB607B681C
:100FB000FA68DA621437BD465DF8047B704700BFFB
:100FC00080B483B000AF78607B689B6843F0804258
:100FD0007B689A600C37BD465DF8047B704700BFA4
:100FE00080B483B000AF78607B68DB6C9BB218463E
:100FF0000C37BD465DF8047B704700BF80B485B0F8
:1010000000AF78600B46FB700023FB737B681A68A7
:10101000FB781340002B02D00123FB7301E0002377
:10102000FB73FB7B18461437BD465DF8047B7047A5
:1010300080B487B000AF7860396000237B61002303
:101040003B610023FB6000237B6176E07B6901222A
:1010500002FA03F33B613B681A683B691340FB608B
:10106000FA683B699A4265D17B681A687B695B00C4
:10107000032101FA03F3DB431A407B681A607B68A3
:101080001A683B681B7919467B695B0001FA03F318
:101090001A437B681A603B681B79012B03D03B68BD
:1010A0001B79022B2ED17B689A687B695B00032138
:1010B00001FA03F3DB431A407B689A607B689A6805
:1010C0003B685B7919467B695B0001FA03F31A43BD
:1010D0007B689A607B685A687B699BB2012101FA40
:1010E00003F3DB431A407B685A607B685A683B68AD
:1010F0009B7919467B699BB201FA03F39BB21A43B1
:101100007B685A607B68DA687B699BB25B0003216D
:1011100001FA03F3DB431A407B68DA607B68DA6824
:101120003B68DB7919467B695B0001FA03F31A43DC
:101130007B68DA607B6901337B617B690F2B85D922
:101140001C37BD465DF8047B704700BF80B485B096
:1011500000AF78600B467B800023FB737B681A69C5
:101160007B881340002B02D00123FB7301E0002396
:10117000FB73FB7B18461437BD465DF8047B704754
:1011800080B483B000AF78600B467B807B687A8840
:101190001A830C37BD465DF8047B704780B483B07A
:1011A00000AF78600B467B807B687A885A830C3767
:1011B000BD465DF8047B704780B500AF114B114A06
:1011C000126842F001021A600E4B00229A600D4A2A
:1011D0000C4B1B6823F0847323F480331360094B9A
:1011E000094A5A60074B074A126822F480221A60A3
:1011F000044B0022DA6000F00BF8044B4FF0006261
:101200009A6080BD003802401030002400ED00E0FC
:1012100080B483B000AF00237B6000233B60354B7C
:10122000344A126842F480321A60324B1B6803F46D
:1012300000333B607B6801337B603B68002B03D14C
:101240007B68B3F5A06FF0D12A4B1B6803F4003321
:10125000002B02D001233B6001E000233B603B6890
:10126000012B42D1234B234A126C42F080521A6464
:10127000214B214A126842F480421A601D4B1D4ADC
:1012800092689A601B4B1B4A926842F400429A6033
:10129000184B184A926842F4A0529A60154B174AAC
:1012A0005A60144B134A126842F080721A6000BFF1
:1012B000104B1B6803F00073002BF9D0104B40F269
:1012C00005621A600B4B0B4A926822F003029A6087
:1012D000084B084A926842F002029A6000BF054B30
:1012E0009B6803F00C03082BF9D10C37BD465DF861
:1012F000047B7047003802400070004019544007DA
:10130000003C024080B485B000AF78600023FB73DE
:101310000023BB730F237B737B68DB78002B37D0F4
:10132000254BDB68DB4303F4E0631B0AFB73FB7BA9
:10133000C3F10403BB737A7BFB7B42FA03F37B7339
:101340007B685B781A46BB7B02FA03F3FB737B680E
:101350009A787B7B1340DAB2FB7B1343FB73FB7BF6
:101360001B01FB73154A7B681B781344FA7B83F8D7
:101370000023124B7A6812785209D2B27968097840
:1013800001F01F01012000FA01F143F822100EE0E4
:101390000A4B7A6812785209D2B27968097801F05A
:1013A0001F01012000FA01F1203243F82210143706
:1013B000BD465DF8047B704700ED00E000E100E011
:1013C00080B485B000AF786039600023FB817B6812
:1013D0001B88FB817A68284B9A4213D07A68274B86
:1013E0009A420FD07B68B3F1804F0BD07A68244BC0
:1013F0009A4207D07A68234B9A4203D07A68224BEC
:101400009A4208D1FB8923F07003FB813B685A881C
:10141000FB891343FB817A681C4B9A420CD07A6893
:101420001B4B9A4208D0FB8923F44073FB813B6835
:101430001A89FB891343FB817B68FA891A803B6810
:101440005A687B68DA623B681A887B681A857A6812
:10145000094B9A4203D07A68084B9A4204D13B6800
:101460009B7A1A467B681A867B6801229A82143717
:10147000BD465DF8047B7047000001400004014058
:101480000004004000080040000C00400010004034
:101490000014004080B483B000AF78600B46FB704E
:1014A000FB78002B08D07B681B889BB243F00103BC
:1014B0009AB27B681A8007E07B681B889BB223F096
:1014C00001039AB27B681A800C37BD465DF8047B35
:1014D000704700BF80B483B000AF786013460A46FF
:1014E0007A807B707B78002B08D07B689B899AB2CE
:1014F0007B8813439AB27B689A8109E07B689B8959
:101500009AB27B88DB439BB213409AB27B689A8184
:101510000C37BD465DF8047B704700BF80B485B0D2
:1015200000AF78600B467B800023FB730023BB81F8
:1015300000237B817B681B8A9AB27B881340BB8126
:101540007B689B899AB27B8813407B81BB89002B87
:1015500005D07B89002B02D00123FB7301E000231F
:10156000FB73FB7B18461437BD465DF8047B704760
:1015700080B483B000AF78600B467B807B88DB4310
:101580009AB27B681A820C37BD465DF8047B7047BF
:0400000508000000EF
:00000001FF
